:1000000012EF01F00000000000EF00F0000000001F
:0A0010000000000000000000F3D71C
:10001C000B840BAE19EF00F0010E036E026A016A3D
:0A002C00006A0A360232FF0E1200CD
:0E003600026A016A006A086A036A000E12007C
:080044000AAE029E000E12003C
:0E004C00150E0D6E0D2EFED7000000001200E6
:10005A000C6A0E6A0250D8A446EF00F001C002F002
:10006A0000C001F0006A0E860250D8A446EF00F0E4
:10007A0001C002F0016A0E960E880250D8B458EFF9
:10008A0000F00E50035ED8A4D8A05DEF00F0D8901F
:10009A0002BE62EF00F0003601360236032E4DEF43
:1000AA0000F05DEF00F0010E0C6EC0DF65EF00F0AE
:1000BA00020E0C6EAEDF65EF00F0040E0C6EBDDFB3
:0200CA00120022
:1000CC000A6A0350D8A40A800750D8A40A820A509E
:1000DC00D8B4C9EF00F0030AD8B482EF00F00AB02C
:1000EC007DEF00F006AEC7EF00F0C5EF00F002AEFA
:1000FC00C5EF00F0C7EF00F00250800B0A6E029EB5
:10010C000650800B069E0A18D8B493EF00F00A50E4
:10011C00D8B4C5EF00F0C7EF00F00750035CD8B4BB
:10012C009DEF00F0D8A0B9EF00F0BFEF00F0065043
:10013C00025CD8B4A7EF00F0D8A0B9EF00F0BFEF85
:10014C0000F00550015CD8B4B1EF00F0D8A0B9EFC5
:10015C0000F0BFEF00F00450005CD8B4C9EF00F021
:10016C00D8B0BFEF00F00A52D8B4C7EF00F0C5EF1B
:10017C0000F00A52D8B4C5EF00F0C7EF00F0D880F9
:0E018C001200D8901200D880D8841200120001
:10019A000900F5CFE6FF0006FBE10106F9E11200CE
:1001AA00FF0E196EFF0E1A6EFF0E1B6EFF0E1C6EEF
:0C01BA00C26A070EC012C08EC280120084
:1001C6000050086E0150006E016A026A036A0B6AEB
:1001D6000C6A960E036E0A6A00C001F008C000F0B1
:0801E600086A026A37DF12000B
:1001EE00C26A070EC012C08E1DC000F0003600900D
:1001FE00003600900050C212C28021DFC282C2A21D
:10020E0001D0FDD7C4CF01F0006AC3500012000E1A
:06021E000112C290120063
:10022400156A166A176A186A0D0EC16E070EB46E47
:10023400939CB9DF010E1D6ED8DFC3DF00C015F03B
:1002440001C016F002C017F003C018F0819C00C072
:1002540004F001C005F002C006F003C007F0000E70
:10026400006E000E016E160E026E880E036E2CDFF9
:10027400010ED8B0000E006E00520FE0080E0B6E97
:100284009D0E0C6E050E0D6E0D2EFED70C2EFCD79A
:0E0294000B2EFAD700000000818CCCD7FFD7CC
:020000040030CA
:0E000000000C1F1EFF8381FF0FC00FE00F409A
:00000001FF
